:020000040800F2
:10000000E8DD0624AD0200084F6700083F610008E4
:100010004D670008BD0800086D730008000000006F
:10002000000000000000000000000000356A000829
:10003000451400080000000051670008376A0008F6
:10004000C7020008C7020008C7020008C70200086C
:10005000C7020008C7020008C7020008C70200085C
:10006000C7020008C7020008C70200087D0F000889
:10007000C7020008C7020008C7020008C70200083C
:10008000C7020008C7020008C7020008C70200082C
:10009000C7020008C7020008C7020008C70200081C
:1000A000C7020008C7020008C7020008C70200080C
:1000B000C7020008C7020008C7020008C7020008FC
:1000C000C7020008C7020008C7020008C7020008EC
:1000D000C7020008C7020008C7020008C7020008DC
:1000E000C7020008C702000800000000C70200089D
:1000F000C7020008C7020008C7020008C7020008BC
:10010000C7020008C7020008C7020008C7020008AB
:10011000C7020008C7020008C7020008C70200089B
:10012000890F0008950F0008C7020008C7020008E1
:10013000C7020008C7020008C7020008C70200087B
:1001400000000000000000000000000000000000AF
:10015000C7020008C7020008C7020008C70200085B
:10016000C7020008C7020008C7020008C70200084B
:10017000C7020008C7020008C7020008C70200083B
:10018000C7020008C7020008856C0008C702000803
:10019000C7020008C7020008C7020008C70200081B
:1001A000C7020008C7020008C7020008C70200080B
:1001B000C7020008C7020008C7020008C7020008FB
:1001C000C7020008C7020008C7020008C7020008EB
:1001D000C7020008C7020008C7020008C7020008DB
:1001E000C7020008C7020008C7020008C7020008CB
:1001F000C7020008C7020008C7020008C7020008BB
:10020000C7020008C7020008C7020008C7020008AA
:10021000C7020008C7020008C7020008C70200089A
:10022000C7020008C7020008C7020008000000005B
:10023000C7020008C702000800000000C70200084B
:10024000C7020008B1080008C7020008C70200087A
:10025000C7020008C7020008C7020008C70200085A
:10026000C7020008C7020008C7020008C70200084A
:10027000C7020008C7020008C7020008000000000B
:10028000C7020008C7020008C702000800000000FB
:1002900000000000C7020008DFF80CD000F002F9EF
:1002A000004800476D890008E8DD062406488047BD
:1002B00006480047FEE7FEE7FEE7FEE7FEE7FEE74B
:1002C000FEE7FEE7FEE7FEE7256B0008990200085F
:1002D0004B1C012B98BF70472DE9F003911C9B0824
:1002E000B1F80480B1F802900A8831F802CC804459
:1002F000814402448444D9F80070D8F8006015683D
:10030000DCF80040C9F80060C8F80070CCF8005074
:100310001460D9F80470D8F804605568DCF804401B
:10032000C9F80460C8F80470CCF80450546008316F
:100330005B1ED5D1BDE8F00370474B1C012B98BF65
:1003400070472DE9F003911C9B08B1F80480B1F8C7
:1003500002900A8831F802CC00EB580800EB5909EA
:1003600000EB520200EB5C0CD9F80070D8F800608A
:100370001568DCF80040C9F80060C8F80070CCF8D7
:100380000050146008315B1EDFD1BDE8F0037047F8
:100390002DE9F05F0546002092469B4688460646BA
:1003A000814640241BE0284641464746224600F04D
:1003B00069F853465A46C01A914110D3114618465F
:1003C000224600F050F82D1A67EB01084F462246EE
:1003D0000120002100F047F817EB00094E41201ED4
:1003E000A4F10104DFDC484631462A464346BDE815
:1003F000F09F40EA01039B0703D009E008C9121FE0
:1004000008C0042AFAD203E011F8013B00F8013BCE
:10041000521EF9D27047D2B201E000F8012B491EFA
:10042000FBD270470022F6E710B513460A46044691
:100430001946FFF7F0FF204610BD20F00040C20D26
:10044000C0F3160040F400007F2A02DA00200146C3
:1004500070470021962A03DCC2F19602D040704713
:10046000963AAFF30080202A04DB203A00FA02F12A
:10047000002070479140C2F1200320FA03F3194392
:1004800090407047202A04DB203A21FA02F0002134
:10049000704721FA02F3D040C2F120029140084394
:1004A00019467047064C074D06E0E06840F001032E
:1004B00094E8070098471034AC42F6D3FFF7F0FEFB
:1004C00088CA0108C8CA010870B58C1810F8015B09
:1004D00015F0070301D110F8013B2A1106D110F8DD
:1004E000012B03E010F8016B01F8016B5B1EF9D1E1
:1004F0002B0705D40023521E0DD401F8013BFAE767
:1005000010F8013BCB1A921C03E013F8015B01F8D1
:10051000015B521EF9D5A142D8D3002070BD000066
:1005200070B53A4905460068884202D0384A904280
:1005300002D1D1F8080302E03648D0F8080310F4DD
:10054000403F11D004F0B8FD04466868B0F5803F24
:1005500006D0B0F5003F03D0B0F5403F27D101E011
:10056000000C18E0A40822E000214FF4002003F062
:100570003BFE044668688103890B18D181140C295D
:1005800015D2DFE801F0140606060606060B0D0F6D
:100590001113800C4000B4FBF0F408E0240906E0DD
:1005A000640904E0A40902E0E40900E0240A03F07D
:1005B000EBFA41F20301884208D8174884422868C0
:1005C000816813D821F48071816070BD134960087F
:1005D000884204D82868816821F44071F4E7104902
:1005E000884206D82868816821F4407141F48071FE
:1005F000EAE70C4988422868816804D821F44071F0
:1006000041F40071E0E741F44071DDE70020024071
:100610000021024000600258002D3101105E5F0091
:1006200020BCBE0040787D012DE9F0410027044642
:1006300000680D4605F088FD0646206805F080FD3F
:1006400030435DD020682F4EC168890105D5617D9A
:10065000012902D1217D01290BD0022D1DD0206856
:1006600005F072FDB8B120688168C1F3400169B13D
:1006700011E02549012502E08F4232D27F1C026839
:10068000D2435206F8D440210160E8E78168314046
:1006900041F010018160012D11D0206805F050FD5E
:1006A00048B120688168C1F3400121B981683140B7
:1006B00041F020018160022D08D0032D04D00425D3
:1006C00003F068FA064617E00C25F9E70825F7E776
:1006D00003F060FA801B05280ED920688068284244
:1006E0000AD0606D40F010006065A06D40F0010020
:1006F000A0650120BDE8F081206880682842E7D12C
:100700000020F7E7C0FFFF7F00DC0C0010B5846B12
:10071000616D11F0500F06D0616DC90625D52046D8
:1007200001F060FB10BD606D40F4007060652068F2
:100730000168090707D505F00BFD90B12068C06876
:10074000800403D50DE0C06880070AD1606D20F4F5
:1007500080706065606DC00403D4606D40F001007E
:100760006065204601F0F6FA10BDE16CC96CBDE889
:100770001040084710B5806B416D41F04001416564
:10078000816D41F00401816501F02CFB10BD10B5B5
:10079000806B01F003FB10BD70B5044600688168F2
:1007A0008268C1F3400112F0010F28D039BB816883
:1007B00001F00D01012914D18168124A1140891CF0
:1007C000816021680320086003F0E4F9054612E027
:1007D00003F0E0F9401B02280DD920688068C007AB
:1007E00009D0606D40F010006065A06D40F0010020
:1007F000A065012070BD20688068C007E8D1002096
:1008000070BD0000C0FFFF7F70B5044600688168BE
:1008100011F0010F40D18168204A11422DD1816829
:10082000D5432940491C816003F0B4F91C490646B0
:1008300020681C4B884201D0984201D11A4A00E03E
:100840001A4A9268984202F01F0200D00146814283
:100850001DD0E2B120E0816811F0010F03D1816861
:100860002940491C816003F095F9801B02280ED9AC
:1008700020680068C043C00709D0606D40F01000D8
:100880006065A06D40F00100A065012070BD20688A
:100890000168C943C907DED1002070BD3F00008058
:1008A0000020024000210240002302400063025861
:1008B000014802F0D7B800002CCB0624FEE7000068
:1008C0001F4B0020F0B51968890311D4BFF34F8F77
:1008D000BFF36F8F1B490860BFF34F8FBFF36F8F5C
:1008E000196841F400311960BFF34F8FBFF36F8F68
:1008F0001968C90323D4124970310860BFF34F8FC0
:10090000081F43F6FF7400680E4D1035C0F34E31DA
:10091000C0F3C90204EA4116104600BF46EA8077D8
:100920002F60401EFAD2491EF4D2BFF34F8F1868D1
:1009300040F480301860BFF34F8FBFF36F8FF0BD6E
:1009400014ED00E050EF00E02DE9F04F93B00446C5
:1009500018210CA8FFF766FD30216846FFF762FDFD
:10096000642002F0DBFF03F015F900EB040ADFF866
:10097000D8B00CACE94642E007F0F2FD35E0C078B3
:1009800000EB802101EBC020304901EB001202F5A1
:1009900040401290007B08B300218E46002075462F
:1009A00001EB410C09EBC00700EB4C03D7E90086D3
:1009B00032F8133018EB03036E41C7E9003654F8E0
:1009C00020305B1C44F82030401C0628EAD3491C28
:1009D000B1F5805FE2D3129981F80CE09BF8031027
:1009E000491C01F007018BF803109BF803105846CF
:1009F0009BF802209142C2D1012002F08FFF03F048
:100A0000C9F85045B8D3124E00252F4654F825207A
:100A10004AB109EBC5010023D1E90001FFF7B8FC99
:100A200046F8250001E046F825706D1C062DEDD333
:100A3000054A0121022080321163401C0628FCD3A4
:100A400013B0BDE8F08F00000064002020010024F6
:100A5000006500202DE9F0412DED048BDFED8B8A40
:100A60004FF480654FF00004A942B0EE689A00D3BD
:100A7000294600231A4604E030F81260521C92B254
:100A800033448A42F8D300EE101A00EE903AF7EEA3
:100A9000009AB8EE400AB8EE601A7D4B0022C9EE0B
:100AA000800A03F5805720EE810A13E030F81260C7
:100AB00007EB820E03EB820C00EE906A9EED001AAB
:100AC000521CF8EE600A92B270EEC00A60EE810A23
:100AD000CCED000A8A42E9D3B0EE688AAA4206D277
:100AE00003EB8200521C92B280ED008AF6E7694F58
:100AF0007E680023684A6649684807F07BFC664ABE
:100B00000120674D7F68430202F50051BE1B6E65F0
:100B10002E6592ED000A20EE000A81ED000A02EB3C
:100B2000C00601EB800CD6ED000A96ED010A471CC9
:100B300060EEA00AB8B2984240EE000ACCED000A7E
:100B4000EDD3DFED581A9FED581A95ED0D0AC1EE61
:100B5000800AC1EE001AFCEEE00A10EE902A92B272
:100B6000042ABCEEE11A11EE100A86B200D2042269
:100B70009E4201D340F2FF1610460FE001EB8003C6
:100B8000D3ED000A39EE209AF4EEE80AF1EE10FAFD
:100B900002DDF0EE608A0446401C80B2B042EDD91E
:100BA00004B33F4818EE903A8038404FBB42C464CB
:100BB000C0ED148A80ED160A14DBB21A521C00EE46
:100BC000102AF1EE040AB8EEC01A89EE810A20EE6E
:100BD000090A80ED150A60EE200AF4EEE80AF1EE4B
:100BE00010FA05DDB0EE480ABDEC048BBDE8F081DB
:100BF000601EB0F5FF7F39D201EB840616ED010AC5
:100C000006F04CFDB0EE409AB0EE680A06F046FDE4
:100C1000F0EE400A96ED010AF0EE608A06F03EFD25
:100C2000B0EE001AF0EE490A214948EEC10A70EE12
:100C3000800AB0EEE01A11EE100A884216DD39EE95
:100C4000400AB6EE001A20EE010A80EE208A18EE65
:100C5000100AB0F17C5F02DDB0EE418A06E018EECA
:100C6000100AB0F13F4F01D9BEEE008A00EE104AE3
:100C700095ED0D1ADFED0F0AB8EE400A30EE080AC6
:100C800020EE010A20EE200AAEE70000000000007E
:100C900000440020001000E0001C002018CD0020BF
:100CA0008064002000409C4B0050434D00401C4598
:100CB0005F7089300000803A2DE9F04100281E461F
:100CC00040F272632DED0C8B7ED0984200D918460D
:100CD00040F6E443C0EB0030B0FBF3F7B7F5006F2C
:100CE00001D340F2FF7702EE107A00EE901A01EE87
:100CF000902A01EE106A9FED460AF8EE428AB8EE9D
:100D0000602AF8EE610AF8EE411A444D002428EEFC
:100D1000821A28EEA02A68EEA10ADFF8088181EE87
:100D200000AADFED3CAA9FED3CBADFED3DCAF0EE34
:100D300000BAB0EE08CAB6EE00DAC2EE009AC0EE13
:100D400080DA00BF00EE104AB8EEC00A20EE2A0A90
:100D500020EE0B9AB0EE490A06F0D6FB20EE288A68
:100D600029EE2B0A06F0D0FB0AEE008A29EE0C0AC7
:100D700006F0CAFB09EE808ACEB1296911F0010F95
:100D80004FEA5101296102D081F434402861288A58
:100D9000DFED250A80B200EE100AB7EE001AF8EE79
:100DA000401A81EEA00A30EE410A00EE2D8A38EE9C
:100DB0002C0A30EE0D0ABDEEC00A10EE100A002813
:100DC00005DA002008E0FFE74FF47A7080E7B0F51D
:100DD000805F01DB40F6FF7048F82400641C202C83
:100DE000B0DB6F80012028700E4800F01F018031B9
:100DF000BFF34F8F0D4A1060203020390029FADCF4
:100E0000BFF34F8FBFF36F8FBDEC0C8BBDE8F0814C
:100E10000000C842DB0FC9400000003DA886062440
:100E200000E0FF4400E0062400FFFF4668EF00E01A
:100E300008B501680A6822F001020A606422009283
:100E40000A68D20703D0009A521E0092F8D1044BD0
:100E500001214FF474629A6080F8351008BD0000DB
:100E600000000240F8B5284C0646207818B907F073
:100E7000FBFC01202070254C25492068084020609B
:100E80002448FFF7D5FF2348603804F0C5FD214D05
:100E9000603D2868C16821F48071C1600020009025
:100EA000401C00906428FBDB304600F03BF81A48F9
:100EB00000F01F018031BFF34F8F184A10602030BF
:100EC00020390029FADCBFF34F8FBFF36F8F0F4A31
:100ED000202311490F48143202F01AFB0D48006814
:100EE000016821F01E0101602868C16841F4807129
:100EF000C1600848603804F04FFD09492068084087
:100F000040F480302060F8BDA886062400740040BC
:100F1000FFFFFCAFA0DD002000E0062468EF00E04A
:100F2000FFFFFDAF70B5040021D004F0E7F81049D1
:100F30000968C1F30211042900D34000610100EBEC
:100F40005102B2FBF1F1022900D20221094A4B0100
:100F5000B0FBF3F35060002407480125491E91605F
:100F6000D3600268D16201684C620068456170BD5F
:100F70001C440258A886062440DD0020014801F0E8
:100F800071BD00006CCD0624014801F06BBD00006E
:100F90003CCA0624014801F065BD0000B4CA06241D
:100FA000294A016891423AD0274A1832914236D0F4
:100FB000254A3032914232D0234A483291422ED0D3
:100FC000214A603291422AD01F4A7832914226D07B
:100FD0001D4A9032914222D01B4AA83291421ED023
:100FE0001A4A91421BD0194A1832914217D0174A17
:100FF0003032914213D0154A483291420FD0134AF1
:10100000603291420BD0114A7832914207D00F4A98
:101010009032914203D00D4AA832914211D1CAB206
:101020001823103AB2FBF3F26FF30901032A02F01E
:101030000703074AD25CC26500D9091D81650846CD
:10104000704721F0FF01F9E7100002401004024050
:10105000E095000830B5224A012301689142CAB2E6
:101060001BD01F4C1434A14217D01D4C2834A14270
:1010700013D01B4C3C34A1420FD0194C5034A14228
:101080000BD0174C6434A14207D0154C7834A142E0
:1010900003D0134C8C34A1420CD11421114C083ACA
:1010A000B2FBF1F10F4A803201F01F0504EB810120
:1010B000AB4010E00C4D1824103A0D44B2FBF4F193
:1010C000A82D00D80831094A01F01F0402EB810164
:1010D000064AA3408032603080E80E0030BD000038
:1010E0000854025800580258F0FBFDBF00080240A7
:1010F00010B50279531E072B2DD8174C0168A14259
:101100001BD0154C1434A14217D0134C2834A142E3
:1011100013D0114C3C34A1420FD00F4C5034A1429B
:101120000BD00D4C6434A14207D00B4C7834A14253
:1011300003D0094C8C34A14203D10849074C4431F7
:1011400002E00749064C443104EB8202C0E91B214E
:1011500001219940416710BD08540258FC580258BB
:10116000FC08024010B583694FF0C074826A0146E2
:10117000002053B1B3F5005F15D072B1012A0CD035
:10118000022A0AD0032A09D104E01AB1012A06D0A2
:10119000022A03D1C96AC90100D5012010BDC96A5C
:1011A000A142FAD010BD002AF7D0012AF2D0022ABB
:1011B000F3D0032AF3D010BD2DE9F04F804E804FBD
:1011C000DFF8FC911836DFF8F8A148370468856D20
:1011D0000AF1300ADFF8ECB14C45DFF8ECC1DFF87A
:1011E000ECE16DD0B4426BD0544569D0BC4267D0BD
:1011F000DFF8D081A8F11808444561D05C455FD084
:1012000064455DD074455BD0DFF8C481444557D058
:10121000DFF8BC8108F11808444551D0DFF8B081EF
:1012200008F1300844454BD0DFF8A48108F14808A4
:10123000444545D0DFF8988108F1600844453FD027
:10124000DFF88C8108F17808444539D0DFF88081D7
:1012500008F19008444533D0DFF8748108F1A808FC
:1012600044452DD0DFF86C81444529D0DFF86481F6
:1012700008F11408444523D0DFF8588108F1280804
:1012800044451DD0DFF84C8108F13C08444517D097
:10129000DFF8408108F15008444511D0DFF834816F
:1012A00008F1640844450BD0DFF8288108F178087C
:1012B000444505D0DFF81C8108F18C08444509D16C
:1012C000D0E91948C4F80480C46E1CB1D0E91C48A8
:1012D000C4F8048004684C452ED0B4422CD0544548
:1012E0002AD0BC4228D0374E183EB44224D05C45A8
:1012F00022D0644520D074451ED0354EB4421BD058
:10130000334E1836B44217D0314E3036B44213D073
:101310002F4E4836B4420FD02D4E6036B4420BD01B
:101320002B4E7836B44207D0294E9036B44203D0C3
:10133000274EA836B44215D190F85C603F2406F0E1
:101340001F06B440AC600468256825F4802525603C
:101350002EE09A600068C160BDE8F08F9960006877
:10136000C260F9E71B4EB4421BD01A4E1436B44289
:1013700017D0184E2836B44213D0164E3C36B4421D
:101380000FD0144E5036B4420BD0124E6436B442D5
:1013900007D0104E7836B44203D00E4E8C36B4428D
:1013A000DAD190F85C60012406F01F06B4406C604E
:1013B000046863608368402B0368CFD1C9E70000ED
:1013C0001000024088000240A0000240B800024025
:1013D0001004024008540258124A30B512485468AA
:1013E0001249134B44F48014546002680025114CD8
:1013F00042F08072026023604D600B680E4A0F4815
:1014000043F001030B600E4B1B68B3FBF2F28263E7
:1014100012B94FF4F072826300230367436749688F
:10142000C16330BD0010005CFCED00E0001000E086
:1014300055CEACC5B01F00E040420F0080640020D4
:10144000C88606247047000072B60A4C4FF48055D7
:1014500000222946204602F091FBC82002F05EFAE5
:1014600001222946204602F089FBC82002F056FAE4
:10147000EEE70000000402582DE9F04F9E4F4FF4B4
:1014800080612DED048B93B09FED9C0A9C4D002054
:101490008DED060A00EE100A07EB8002401CB8EE44
:1014A000C00A884282ED000AF4DB8B46684606F0EB
:1014B000C3FF944A00239049684606F09BFFDFF87B
:1014C00044920024DFF8408299ED000ADFED8F8A14
:1014D0008F4E9FED909A9FED908ADDED060A30EEDB
:1014E000200A8DED060A00BF00EE104AD6ED0D0A67
:1014F000B8EEC00A20EE281A81EE200A06F004F8A1
:10150000F0EE480A08EB840040EE090A641CFF2C48
:10151000C0ED000AE8DDDFF8048200244FF4007A11
:1015200000EE104AD6ED0D0AB8EEC00A20EE281AD9
:1015300081EE200A05F0E8FFF0EE480A08EB84008F
:1015400040EE090A641C5445C0ED000AE8DB0024A3
:10155000B8465F4600EE104AD6ED0D0AB8EEC00A56
:1015600020EE281A81EE200A05F0CEFFF0EE480AA0
:1015700008EB840040EE090A641CBC42C0ED000A7E
:10158000E8DB4FF4807107A806F056FF0DA851461E
:1015900006F052FF3946684606F04EFF5A4800F002
:1015A0001F0101F58061BFF34F8F5D4C2039002989
:1015B000206000F12000F9DCBFF34F8FBFF36F8F85
:1015C000584800F01F0101F50061BFF34F8F20392B
:1015D0002060002900F12000F9DCBFF34F8FBFF33A
:1015E0006F8F514E776800234E4A07A8464906F090
:1015F00001FF4C4890ED000A7068DDED060AC71B3C
:10160000464830EE200A00F01F0101F500618DED23
:10161000060ABFF34F8F20392060002900F1200017
:10162000F9DCBFF34F8FBFF36F8F404800F01F010D
:1016300001F58051BFF34F8F20392060002900F160
:101640002000F9DCBFF34F8FBFF36F8FB046766891
:10165000364A002331490DA806F0CCFE3349D8F8AC
:10166000040091ED000ADDED060A861B224830EEEB
:10167000200A00F01F0101F580518DED060ABFF32D
:101680004F8F20392060002900F12000F9DCBFF3E2
:101690004F8FBFF36F8F1B4800F01F0101F5005102
:1016A000BFF34F8F2060203020390029FADCBFF3D0
:1016B0004F8FBFF36F8FD8F804400023114A68465C
:1016C0000D4906F097FED8F80400012199ED000AB3
:1016D000DDED060A001B30EE200A8DED060A2F60B4
:1016E0006E60A860E9600A488038C06E286113B057
:1016F000BDEC048BBDE8F08F000C00200000000062
:1017000000480020187D002000000020DB6F754895
:10171000806400200000C8420000EA42000400206B
:101720005CEF00E018650020001000E0186D00205C
:101730002DE9F041274D00244FF480662DED048BF8
:10174000B7EE009AF6EE009ADFED218A9FED228A2D
:1017500000EE104AB8EEC00A60EE080A80EEA80A51
:1017600005F02AFE39EE400A05EB8400641CB44201
:1017700020EE290A80ED000AEADB194D00249FEDD6
:10178000179A05F500664FF4007700BF00EE104A87
:10179000B8EEC00A20EE080A60EE098AB0EE680AC8
:1017A00005F00AFE05EB840080ED000AB0EE680A41
:1017B00005F0AAFE06EB8400641CBC4280ED000A22
:1017C000E4DB084901200872BDEC048BBDE8F08120
:1017D00000C07F4400540020DB0FC9400000803A65
:1017E00040CD002000640020F0B506464FF0010E09
:1017F0000025059800F1C004A4B28C4200D90C4623
:10180000014610E001EB410702EB470736F817707D
:10181000FF1A3FB2002F00DA7F423FB2AF4200DD35
:101820003D46491C89B2A142ECD34627642115FBF1
:1018300007F595FBF1F10FFA81FCBCF1030F01DA1A
:101840004FF0030C00EB400102EB410136F81110A0
:10185000C91A0DB2002D00DA6D4201462DB220E00A
:1018600001EB410702EB470736F81770FF1A3FB24A
:10187000002F00DA7F423FB2BEF1000F08D0AF4226
:1018800006DA654502DB491E88B2F0BD4FF0000E56
:10189000AF4202DD4FF0010E02E001DA4FF0000E20
:1018A0003D4601F1010189B2A142D9D301464FF071
:1018B000FF3711E001EB410502EB450536F8155005
:1018C000ED1A2DB2002D00DA6D422DB2BD4201DDC0
:1018D0002F460846491C89B2A142EBD3F0BD000057
:1018E000F8B50027044615460E46009790F85000BC
:1018F00001280BD0012084F850002046FEF74CFF51
:101900000100606D04D040F010002DE00220F8BD11
:1019100020F4885040F002006065206806F48032B0
:1019200005F08043134D1A4383682B401A4342F05D
:1019300000428260104A20680EE0009B5B1C00930E
:10194000934209D3606D84F8507020F0020040F09B
:10195000100060650120F8BD8368DB0FEDD1606D7C
:1019600020F0020040F001006065084684F85070E5
:10197000F8BD0000C0FFFE3F00F8C3252DE9F84F79
:101980004FF0000B0446E54E0D46CDF800B05F4623
:1019900090F85000DFF888A3012808D04FF0010923
:1019A00084F85090206804F0CFFB18B168E1022061
:1019B000BDE8F88F21682868CA69030328D090FA27
:1019C000A0F0B0FA80F000BF00F01F0309FA03F0A6
:1019D0000243CA61D5E900124FF00C0C20681F23A6
:1019E000C1F384610CEA921C02F01F026044934030
:1019F0009140026B9A430A430263206804F0A4FBFF
:101A00008046206804F09CFB58EA000003D07FE089
:101A1000C0F38460D8E72068AA68296804F0A0FBB6
:101A2000C0490968B9EB117F06D121686869C968A6
:101A3000C1F38201490008E02068C168C906C16895
:101A40006869F5D501F01001490888402969042921
:101A50002ED022682B6802EB810103F0F8420B6E56
:101A6000024303F0004010430866697E226828693B
:101A7000012917D05FF0000102EB8000026E22F016
:101A800000420A430266287E21682A6901280CD098
:101A900000200B6902F01F02904023F4F042024341
:101AA0000A6135E04FF00041E6E74FF40060F0E7EF
:101AB00020682978026E02F0F842B2EB816F03D100
:101AC000016E21F00041016620682978426E02F023
:101AD000F842B2EB816F03D1416E21F000414166C3
:101AE00020682978826E02F0F842B2EB816F03D150
:101AF000816E21F00041816620682978C26E02F073
:101B0000F842B2EB816F03D1C16E21F00041C16692
:101B10002068816811F0010F75D150F8C02F95F839
:101B20000CC0814B29680CF0180C23FA0CF3C1F39C
:101B300013080B4022EA08021A4302607B48E96856
:101B4000814276D1286801031AD090FAA0F1B1FA47
:101B500081F1491C01F01F0109294FEA003130D8F9
:101B6000002910D090FAA0F1B1FA81F101F1010140
:101B700001F01F0109FA01F208D1C0F3846109E004
:101B8000C0F38461E5E7C0F38461EFE790FAA0F168
:101B9000B1FA81F101F1010101F01F0142EA816115
:101BA00002D1C0F3846003E090FAA0F0B0FA80F0B4
:101BB00000F1010000F01F0000EB400041EA00517D
:101BC00033E000290ED090FAA0F1B1FA81F100BF04
:101BD00001F1010101F01F0109FA01F205D1C0F381
:101BE000846106E0C0F38461F2E790FAA0F1B1FAF3
:101BF00081F101F1010101F01F0142EA816103D18C
:101C0000C0F3846004E040E090FAA0F0B0FA80F005
:101C1000474A00F1010000F01F0000EB400002EB1A
:101C2000005041EA000141F00071AA68206804F008
:101C300097FAD5F800C0BCF1000F26DA3D4B2068BA
:101C40003D49DFF8F890984201D0B04201D10A46F0
:101C500000E04A469268984202F0E07201D0B04239
:101C600009D19D68D6F8088005F0010508F0010843
:101C700045EA080503E0DAF8085005F0010545B12A
:101C8000606D012740F020006065384684F850B050
:101C90008EE62B4DAC451CD115021AD45045F4D11B
:101CA000984202D0B04200D049468B6842F400000E
:101CB00023F0E07202438A60234922480968B1FB9D
:101CC000F0F04000801C00E0401E00900028FBD196
:101CD000DBE71E4DAC450CD1D5010AD45045D4D11B
:101CE000984202D0B04200D049468B6842F08070E2
:101CF0000EE0174DAC45C8D15502C6D45045C4D1ED
:101D0000984202D0B04200D049468B6842F480002D
:101D100023F0E07202438A60B7E70000002102402E
:101D2000006002580010005CFFFF0F000000FF473A
:101D3000000020FE00200240002302400063025801
:101D4000000084CB400D0300C8860624000052C763
:101D50000000B8CF30B50C4D012304680B4A0C4984
:101D6000AC4202D15468CC604B700A4D0468AC425E
:101D700002D154684C61CB700068074CA04202D17C
:101D80005068C8614B7130BD00200240001000E077
:101D900088860624002102400060025830B50C4DB0
:101DA000012304680B4A0C49AC4202D154688C6090
:101DB0000B700A4D0468AC4202D154680C618B7000
:101DC0000068074CA04202D1506888610B7130BD99
:101DD00000200240001000E0888606240021024016
:101DE0000060025810B5154A0168914201D10021E6
:101DF00008E0134A914201D1012103E0114A9142C6
:101E00001BD10221104B002253F82140641C43F8DF
:101E10002140836D0C4C0C3444F821308265C16C38
:101E200000290AD04A65C06C002806D00068002846
:101E300003D0016821F00401016010BD00200240C0
:101E40000021024000600258F8C80624806D7047E7
:101E5000F8B54FF0000604003546009602D0606DDC
:101E600010B107E00120F8BD204600F005F9A66595
:101E700084F8506020688168C1F3407119B18168AD
:101E8000704A1140816020688168C1F3007181B996
:101E900081686D4A114041F0805181606C496B4806
:101EA0000968B1FBF0F0401C00E0401E00900028E3
:101EB000FBD120688168C1F3007141B9616D0125D2
:101EC00041F010016165A16D41F00101A16504F0CF
:101ED0003BF9616D01F010010143606D03D00125F4
:101EE00040F0100092E020F4807040F00200606545
:101EF0002068816811F0010F1FD1564A564B90425D
:101F000001D0984207D191689E6801F0010106F066
:101F10000106314303E05149896801F0010161B9CB
:101F2000904201D0984201D14D4800E04D4882686E
:101F3000616822F47C120A43826001F025FE41F2BE
:101F40000301884202D9A06810280CD0617D227F4D
:101F5000A368206B490341EA024118430843217FEB
:101F600001290CD010E0607D227F216B400340EA04
:101F7000024241F01000104340F00C00EFE7218CCA
:101F8000394A02EB41410843616A29B1A26A01F46E
:101F90007871014342EA01002168344BCA681A4053
:101FA0000243CA60206804F0CFF80646206804F0B7
:101FB000C7F830431DD1206844F20303267DE16A4F
:101FC000C26841EA86319A430A43C26094F83800F5
:101FD00001281ED02068016921F0010101612068FB
:101FE000626B016921F07041114301612046FEF7E7
:101FF00097FAE068012820681CD0016B21F00F01DE
:102000000163606D20F0020040F001006065284629
:10201000F8BD2068A38F164FD4E9101C154E07EBAE
:102020000347A26C036941EA0C013A433340114370
:102030001943D3E7A269016B521E21F00F0111432E
:10204000DEE70000C0FFFF5FC0FFFF7F400D030021
:10205000C886062400200240002102400060025889
:1020600000230240006302580000FEFF03C0F0FF9F
:102070000100FFFF1EF800FC2DE9F04FB7B08046CD
:10208000142130A8FEF7CEF9C0216846FEF7CAF940
:10209000002202200E90042714464FF400218602ED
:1020A000CDE90012CDE90C702D25CDE90F62C103F9
:1020B000299105236846CDE90A35119202F0F8F915
:1020C00008B1FFF7C1F982494FF48067D8F80000E2
:1020D0004FF4005BDFF8FC914FF0030A884246D1D1
:1020E0007C480838016841F020010160016801F076
:1020F00020013591D9F8002042F00402C9F80020EF
:10210000D9F8001001F004013591016841F0020195
:102110000160006830A9CDF8C0A000F00200359041
:102120006D48CDE931A401F00BFC6C4D09236C4ADC
:1021300028462A609115C5E9013405F11C034A02BD
:10214000C5E9034783E81600C5E9056B00F0FEFF0B
:1021500008B1FFF779F9C8F84C5000220521C5F8FD
:102160003880382001F0EAFD382001F0D9FD5D49C2
:10217000D8F80000884248D156480838016841F034
:1021800020010160016801F020013591D9F800209B
:1021900042F00102C9F80020D9F8001001F0010155
:1021A0003591016841F00201016000681821329404
:1021B00000F002003590CDE9301A4B4830A901F00B
:1021C000BFFB464D0A23464A7835183228462A6016
:1021D0009115C5E9013405F11C034A02C5E903471D
:1021E00083E81600C5E9056B00F0B0FF08B1FFF702
:1021F0002BF9C8F84C5000220521C5F83880392049
:1022000001F09CFD392001F08BFD3849D8F8000021
:10221000884259D1D9F80010484641F08071C9F878
:102220000010D9F8001001F080713591D9F8001034
:1022300041F00401C9F80010D9F8001001F00401C0
:102240003591244914310A6842F002020A60096893
:1022500001F002013591016841F40011016000684C
:102260000C21329400F400103590CDE9301A1A4850
:1022700030A901F065FB1E48184D1E4AF035016873
:10228000112341F0406101602A604FF48071C5E97B
:10229000013405F11C0328464A02C5E9034783E8D7
:1022A0001600C5E9056B00F051FF08B1FFF7CCF847
:1022B000C8F84C5000220521C5F83880812001F073
:1022C0003DFD812001F02CFD37B0BDE8F08F00000E
:1022D00000200240E0440258000802583CCA06248C
:1022E0001004024000210240000002580060025821
:1022F00004040058085402582DE9F047384E0446AB
:1023000000689146DFF8DC808A46B04201D0404543
:1023100001D1354900E03549896801F01F0503F016
:1023200013FF002859D194F85000012855D00120FE
:102330004FF0000784F8500025B1052D02D0092D7B
:1023400000D003E02046FEF75FFA18B184F8507021
:10235000BDE8F087616D40F6016320689943404510
:1023600041F48071616500D00646864200D01DB9F7
:10237000606D20F480106065606DC00404D5A06DB0
:1023800020F00600A06500E0A7651C20E16C184A5B
:10239000CA63E26C17491164E26C1749D164216881
:1023A000086084F850702068416841F01001416075
:1023B0002068E16AC26822F003020A43C260216811
:1023C0004B46E06C5246403101F05AF921680B4B04
:1023D0008A681A40121D8A60BAE70220B8E7000036
:1023E0000020024000210240002302400063025806
:1023F0000D0700088F07000875070008C0FFFF7F62
:1024000070B5044690F85000012809D0012084F8E6
:10241000500003212046FEF707F9050002D027E00F
:10242000022070BD2068C16821F00301C160E06C2A
:1024300090F83510022907D100F020F8050003D0EC
:10244000606D40F0400060652068416821F0100137
:102450004160204615B1FEF79FF909E0FEF79CF9AF
:10246000050005D1606D20F4885040F001006065E2
:10247000002084F85000284670BD00002DE9F84F78
:10248000044601F087FB00903CB194F83500022827
:1024900006D0802161650020E4E00120BDE8F88FCE
:1024A000C74DC74EC649183520683036DFF814834B
:1024B000DFF814938842DFF814A3DFF814B32ED0AA
:1024C000A8422CD0B0422AD0404528D0484526D03A
:1024D000504524D0584522D0BD4A183290421ED0D3
:1024E000BC4A90421BD0BB4A1832904217D0B94A1E
:1024F0003032904213D0B74A483290420FD0B54A9A
:10250000603290420BD0B34A7832904207D0B14A41
:102510009032904203D0AF4AA832904209D102686B
:1025200022F01E0202602068426922F080024261AD
:1025300003E0026822F00E02026027688F423846EC
:102540004DD0A8424BD0B04249D0404547D0484535
:1025500045D0504543D0584541D09D4A183290420D
:102560003DD09C4A90423AD09A4A1832904236D096
:10257000984A3032904232D0964A483290422ED019
:10258000944A603290422AD0924A7832904226D0C1
:10259000904A9032904222D08E4AA83290421ED069
:1025A0008D4A90421BD08C4A1432904217D08A4AEE
:1025B0002832904213D0884A3C3290420FD0864A4B
:1025C000503290420BD0844A6432904207D0824A03
:1025D0007832904203D0804A8C32974204D1206EE8
:1025E000026822F48072026075492068884228D00F
:1025F000A84226D0B04224D0404522D0484520D021
:1026000050451ED058451CD071491831884218D009
:102610007049884215D06F491831884211D06D49F0
:10262000303188420DD06B494831884209D0694920
:102630006031884205D067497831884201D06549C8
:102640009031016821F0010101600EE001F0A2FA71
:102650000099401A052808D920226265032100202C
:1026600084F8351084F8340017E73868C007EDD1D6
:10267000534A0121206890422ED0A8422CD0B0426B
:102680002AD0404528D0484526D0504524D058452A
:1026900022D04F4B183398421ED04E4B98421BD03D
:1026A0004C4B1833984217D04A4B3033984213D0D2
:1026B000484B483398420FD0464B603398420BD07A
:1026C000444B7833984207D0424B9033984203D022
:1026D000404BA833984208D194F85C703F23A06D1A
:1026E00007F01F07BB40836007E094F85C30A06DE3
:1026F00003F01F0301FA03F34360206890424DD0BA
:10270000A8424BD0B04249D0404547D0484545D07B
:10271000504543D0584541D02D4A183290423DD0C3
:102720002C4A90423AD02B4A1832904236D0294A4D
:102730003032904232D0274A483290422ED0254A39
:10274000603290422AD0234A7832904226D0214AE1
:102750009032904222D01F4AA83290421ED01E4A88
:1027600090421BD01C4A1432904217D01A4A283289
:10277000904213D0184A3C3290420FD0164A503241
:1027800090420BD0144A6432904207D0124A7832F9
:10279000904203D0104A8C3290420BD1D4E91902F6
:1027A0004260E06E30B1026822F480720260D4E9C7
:1027B0001C024260002084F8351084F834006DE675
:1027C00010000240580002407000024088000240A1
:1027D000A000024010040240085402582DE9F05FA6
:1027E00028B190F83510022904D0802141650120DC
:1027F000BDE8F09F904C904B0168183C18338E4A0E
:10280000DFF83C92A1428D4CDFF838E28E4FDFF8C2
:102810003CB2DFF83CA28F4D8F4E31D091422FD089
:1028200099422DD0A1422BD0494529D0714527D0BE
:10283000B94225D0DFF810C20CF1180C61451FD049
:10284000DFF808C2ACF1600C614519D0DFF8FCC1BB
:10285000ACF1480C614513D0DFF8F0C1ACF1300C9D
:1028600061450DD0DFF8E4C1ACF1180C614507D02B
:10287000594505D0514503D0A94201D0B1422CD1D0
:10288000DFF8B4C14FF0040880F83580ACF1180CC3
:1028900061451DD091421BD0994219D0A14217D059
:1028A000494515D0714513D0B94211D0664818304A
:1028B00081420DD065486038814209D0634848386C
:1028C000814205D061483038814201D05F481838D4
:1028D000086820F001000860ABE0D1F800C02CF0DF
:1028E0000E08DFF854C1C1F80080ACF1180C016883
:1028F000614527D0914225D0994223D0A14221D0D1
:1029000049451FD071451DD0B9421BD0DFF838C1F1
:102910000CF1180C614515D0DFF830C1ACF1600C3A
:1029200061450FD0DFF824C1ACF1480C614509D0F6
:10293000DFF818C1ACF1300C614503D0DFF80CC1F1
:10294000ACF1180CD1F800C02CF0010CC1F800C09B
:10295000DFF8E4804FF0010C0168A8F11808414548
:1029600046D0914244D0994242D0A14240D04945FC
:102970003ED071453CD0B9423AD0334A18329142E8
:1029800036D0324A603A914232D0304A483A914287
:102990002ED02E4A303A91422AD02C4A183A9142EF
:1029A00026D0594524D0514522D0A94220D0B14249
:1029B0001ED02A4A91421BD0284A1432914217D085
:1029C000264A2832914213D0244A3C3291420FD0F9
:1029D000224A503291420BD0204A6432914207D0B1
:1029E0001E4A7832914203D01C4A8C32914218D14F
:1029F000016E0A6822F480720A6090F85C20816D92
:102A000002F01F020CFA02F24A60D0E919124A6081
:102A1000C16E31B10A6822F480720A60D0E91C12DA
:102A20004A600022016D80F835C080F8342001B181
:102A300088470020DCE600002800024058000240E1
:102A40007000024088000240A00002407004024072
:102A500088040240A0040240B8040240085402580E
:102A6000406D70472DE9FC5F0446F74E0020DFF80B
:102A7000D88300904FF41652F44808F11808A56D59
:102A8000DFF8C493DFF8C0A3016809F130092068BA
:102A90000AF1480AB1FBF2F1B04201912F68D5F872
:102AA00000C0DFF8ACB335D04146884232D048454B
:102AB00030D050452ED058452CD0E54918318842A9
:102AC00028D0E3493031884224D0E1494831884256
:102AD00020D0E04988421DD0DE491831884219D003
:102AE000DC493031884215D0DA494831884211D06A
:102AF000DFF860E30EF1600E70450BD0D54A7832F6
:102B0000904207D0D34B9033984203D0D149A8319B
:102B100088427DD194F85C20082102F01F0201FA5E
:102B200002F23A424AD0B04232D0404530D0484515
:102B30002ED050452CD058452AD0C54A1832904244
:102B400026D0C34A3032904222D0C14A4832904205
:102B50001ED0C04A90421BD0BE4A1832904217D0B5
:102B6000BC4A3032904213D0BA4A483290420FD019
:102B7000B84A603290420BD0B64A7832904207D0C1
:102B8000B44A9032904203D0B24AA832904203D164
:102B9000026802F0040202E0026802F008026AB170
:102BA000026822F00402026094F85C0000F01F004A
:102BB0008140A960606D40F00100606594F85C00A0
:102BC000012100F01F008140394240D02068B0420E
:102BD00034D0404532D0484530D050452ED05845AD
:102BE0002CD09B4A1832904228D0994A30329042D9
:102BF00024D0974A4832904220D0964A90421DD025
:102C0000944A1832904219D0924A3032904200E0F1
:102C1000AFE113D08F4A483290420FD08D4A6032D4
:102C200090420BD08B4A7832904207D0894A90323A
:102C3000904203D0874AA83290427DD1406910F07B
:102C4000800F04D0A960606D40F00200606594F8C8
:102C50005C00042100F01F00814039423ED0206812
:102C6000B04232D0404530D048452ED050452CD0CF
:102C700058452AD0764A1832904226D0744A3032CB
:102C8000904222D0724A483290421ED0714A9042FD
:102C90001BD0704A1832904217D06E4A30329042A0
:102CA00013D06C4A483290420FD06A4A6032904248
:102CB0000BD0684A7832904207D0664A90329042F0
:102CC00003D0644AA83290424ED1006810F0020F3F
:102CD00004D0A960606D40F00400606594F85C0069
:102CE000102100F01F008140394258D02068B042C6
:102CF00034D0404532D0484530D050452ED058458C
:102D00002CD0534A1832904228D0514A3032904247
:102D100024D04F4A4832904220D04E4A90421DD093
:102D20004C4A1832904219D04A4A3032904215D05B
:102D3000484A4832904200E014E00FD0454A6032E1
:102D400090420BD0434A7832904207D0414A9032A9
:102D5000904203D03F4AA832904207D1006800F069
:102D6000080006E0006872E70068B7E7006800F056
:102D70000400A0B1A96020680168490304D5006877
:102D8000000308D5A16C07E00168C90503D40168F8
:102D900021F008010160216C09B12046884794F8B0
:102DA0005C00202100F01F008140394279D020686A
:102DB000B04232D0404530D048452ED050452CD07E
:102DC00058452AD0224A1832904226D0204A303222
:102DD000904222D01E4A483290421ED01D4A904254
:102DE0001BD01C4A1832904217D01A4A30329042F7
:102DF00013D0184A483290420FD0164A603290429F
:102E00000BD0144A7832904207D0124A9032904246
:102E100003D0104AA832904203D1006800F010009D
:102E200002E0006800F00200B0B3A96094F8350039
:102E30000428206801680FD049037ED5006800038C
:102E40002BD4616C2AE0000010000240C8860624E2
:102E5000700002401004024021F016010160206859
:102E6000416921F080014161206C08B9A06C20B15A
:102E70002068016821F00801016094F85C303F216E
:102E8000012003F01F0300229940A96084F8350057
:102E900084F83420216D65E003E0E16B09B1204640
:102EA0008847606D00287DD0606DC00759D02068CC
:102EB000042184F83510B0422BD0404529D0484534
:102EC00027D0504525D0584523D09D49884220D051
:102ED0009B49183188421CD099493031884218D01A
:102EE0009849884215D097491831884211D09549A0
:102EF000303188420DD093494831884209D09149F8
:102F00006031884205D08F497831884201D08D499F
:102F10009031016821F00101016020680099019A57
:102F2000491C0091914202D80168C907F6D1006896
:102F3000C00710D003200FE0FFE70168C905ACD43B
:102F400003680121002223F01003036084F8351088
:102F500084F83420A1E7012084F83500002084F8AB
:102F60003400E16C00291DD002B02046BDE8F05FBE
:102F70000847754988421DD073491431884219D0D9
:102F800071492831884215D06F493C31884211D0AF
:102F90006D49503188420DD06B496431884209D067
:102FA000694900E084E07831884203D066498C3179
:102FB00088427DD194F85C800427016808F01F08DE
:102FC00007FA08F717EA0C0F009746D04F0744D5C9
:102FD00000980F04686003D5C8033CD4A16CC1E716
:102FE000880638D42068B0422DD0554960398842CF
:102FF00029D0484527D0504525D0584523D05049A1
:10300000884220D04E49183188421CD04C4930317A
:10301000884218D04B49884215D04A491831884215
:1030200011D04849303188420DD046494831884254
:1030300009D0704507D0904205D0984203D041494D
:10304000A831884203D1016821F0080102E001683B
:1030500021F004010160216C84E7022707FA08F7D8
:1030600017EA0C0F00974ED08F074CD500980F042D
:10307000686003D5C80344D4616C73E7880640D404
:103080002068B0422FD02E49603988422BD0484565
:1030900029D0504527D0584525D02949884222D0EB
:1030A0002749183188421ED025493031884200E036
:1030B00044E018D02349884215D02249183188426B
:1030C00011D02049303188420DD01E494831884204
:1030D00009D0704507D0904205D0984203D01949D5
:1030E000A831884203D1016821F0140102E001688F
:1030F00021F00A010160012184F83510002084F8D4
:103100003400E16B2EE7082202FA08F212EA0C0FF3
:1031100014D0090712D5016821F00E01016094F85E
:103120005C100120002201F01F0100FA01F169602A
:10313000606584F8350084F8342012E7BDE8FC9F10
:103140008800024010040240085402582DE9F05F44
:10315000044600F01FFD002C07467DD0E34E0221FF
:1031600020684FF00308DFF888934FF00005DFF880
:1031700084A3B042DFF880B334D0DC4A18329042E6
:1031800030D048452ED050452CD058452AD0DA4A68
:103190001832904226D0D84A3032904222D0D64AB5
:1031A000483290421ED0D54A90421BD0D34A1832A2
:1031B000904217D0D14A3032904213D0CF4A483291
:1031C00090420FD0CD4A603290420BD0CB4A783239
:1031D000904207D0C94A9032904203D0C74AA832E1
:1031E00090427DD184F83510B04284F834502ED00E
:1031F000BE49183188422AD0484528D0504526D0AB
:10320000584524D0BC491831884220D0BA493031C1
:1032100088421CD0B8494831884218D0B749884202
:1032200015D0B6491831884211D0B449303188429E
:103230000DD0B2494831884209D0B0496031884246
:1032400005D0AE497831884201D0AC49903101684F
:1032500021F00101016008E027E100BF00F09AFCC5
:10326000C01B052801D920211CE120680068C00787
:10327000F4D104F108002168D4E9053C8E4685C8E4
:1032800009681043D4E907281F43636A38439C4FF9
:1032900040EA0C001043394040EA0800042B40EAA1
:1032A000010003D1D4E90B12114308439549096881
:1032B0006FF30F01B1F1005F0FD36168A1F1290233
:1032C000052A08D9163A032A05D9083A012A02D94B
:1032D0004F39032901D840F48010CEF8000000E0F7
:1032E00023E02068676A4069042F20F0070047EA5E
:1032F00000070DD1D4E90A01074349B12046FDF783
:1033000031FF28B140206065012184F83510CCE000
:10331000206847612046FDF743FE94F85C203F217A
:1033200002F01F029140816054E0774A90421BD026
:10333000754B1433984217D0734B2833984213D0EF
:10334000714B3C3398420FD06F4B503398420BD0A7
:103350006D4B6433984207D06B4B7833984203D05F
:10336000694B8C3398427DD184F8351084F8345001
:10337000664B0168A26801EA030E402A73D0802AD6
:1033800072D00022D4E90378D4E9053142EAD702A9
:1033900042EAD8085C4AD4E9077C48EAD30848EAFC
:1033A000D10141EAD701524241EA1C11142341EAFA
:1033B0000E01016020681044B0FBF3F08000E0656E
:1033C0002046FDF7EDFD94F85C20012102F01F027C
:1033D000914041602068B04257D04449183188423A
:1033E00053D0484551D050454FD058454DD0424913
:1033F0001831884249D040493031884245D03E4951
:103400004831884241D03D4988423ED03B4918313D
:1034100088423AD039493031884236D0374948312C
:10342000884232D03549603188422ED033497831D4
:1034300088422AD031499031884226D02F49A8317C
:10344000884222D0304988421FD02F491431884207
:103450001BD02D492831884217D02B493C31884256
:1034600013D002E01DE017E018E0274950318842F0
:103470000BD025496431884207D0234978318842EE
:1034800003D021498C31884229D12046FDF7E2FD45
:10349000A06880280CD00CE0102273E74FF4804223
:1034A00070E74021616584F835800120BDE8F09F18
:1034B0006560216E20790860D4E919014160606877
:1034C000401E072808D82046FDF712FEE06E056072
:1034D000D4E91C01416002E0E566256765670120CB
:1034E000656584F835000020E0E700001000024028
:1034F00040000240580002407000024010040240A8
:103500003F8010FE0010005C085402580F00FEFFC0
:103510002DE9F05F04004FF0000514D094F834005A
:10352000012812D094F8356001204FF0000C84F887
:103530003400012E0BD0C0026065012584F834C030
:103540002846BDE8F09F0120FBE70220F9E7454E41
:103550000227206884F83570B042434FC4F854C045
:10356000DFF80881DFF80891DFF808A1DFF808B17B
:103570003BD0B84239D0404537D0484535D050458A
:1035800033D0584531D0DFF8F0C00CF1180C60454D
:103590002BD0DFF8E4C00CF1300C604525D0DFF80B
:1035A000DCC0604521D0DFF8D4C00CF1180C6045B8
:1035B0001BD0DFF8C8C00CF1300C604515D0DFF827
:1035C000BCC00CF1480C60450FD0DFF8B0C00CF166
:1035D000600C604509D0DFF8A4C00CF1780C6045A0
:1035E00003D0DFF898C00CF1900CD0F800C02CF09C
:1035F000010CC0F800C02046FDF7DEFD2068B04297
:103600002AD0B84228D0404526D0484524D050453D
:1036100022D0584520D01849183188421CD016496C
:103620003031884218D01549884215D013491831D5
:10363000884211D01149303188420DD00F494831AC
:10364000884209D00D496031884205D00B49783154
:10365000884201D009499031016841F001010160BF
:103660006EE70000100002402800024040000240C7
:1036700058000240700002408800024010040240DE
:103680002DE9F84F04008C464FF00000009014D054
:1036900094F83400012812D094F83550012000210C
:1036A00084F83400012D0CD0C00260650120009028
:1036B00084F834100098BDE8F88F0120FBE7022061
:1036C000F9E78C4D0226206884F83560A8428A4DBF
:1036D00061658A4E8A4FDFF82C82DFF82C92DFF882
:1036E0002CA2DFF82CB226D0A84224D0B04222D09F
:1036F000B84220D040451ED048451CD050451AD075
:10370000584518D08349884215D0824918318842DB
:1037100011D08049303188420DD07E4948318842ED
:1037200009D07C496031884205D07A497831884295
:1037300001D078499031016821F0010101606146B2
:103740002046FDF739FD6B49206888422CD0A842FD
:103750002AD0B04228D0B84226D0404524D048458F
:1037600022D0504520D058451ED06A4A90421BD0E6
:10377000684A1832904217D0664A3032904213D0CD
:10378000644A483290420FD0624A603290420BD075
:10379000604A7832904207D05E4A9032904203D01D
:1037A0005C4AA83290420CD1026822F01E0242F01C
:1037B00016020260206C88B12068026842F008029C
:1037C0000BE0026822F00E0242F00A020260206C56
:1037D00020B12068026842F004020260206888423A
:1037E0004BD0A84249D0B04247D0B84245D040451E
:1037F00043D0484541D050453FD058453DD0454A3B
:1038000090423AD0434A1832904236D0414A303240
:10381000904232D03F4A483290422ED03D4A6032E8
:1038200090422AD03B4A7832904226D0394A903290
:10383000904222D0374AA83290421ED0364A904257
:103840001BD0354A1432904217D0334A2832904266
:1038500013D0314A3C3290420FD02F4A503290421E
:103860000BD02D4A6432904207D02B4A78329042D6
:1038700003D0294A8C3290420DD1206E0268D203C7
:1038800003D5026842F480720260E06E18B10268EB
:1038900042F4807202602068884226D0A84224D078
:1038A000B04222D0B84220D040451ED048451CD05E
:1038B00050451AD0584518D01649884215D0154998
:1038C0001831884211D01349303188420DD0114946
:1038D0004831884209D00F496031884205D00D49EE
:1038E0007831884201D00B499031016841F00101E3
:1038F0000160DFE610000240280002404000024064
:10390000580002407000024088000240A0000240BF
:10391000B8000240100402400854025870B5044632
:1039200000F038F90546601C02D0044800780444D1
:1039300000F030F9401BA042FAD370BDBC860624CB
:103940002DE9F84F03247D4D00234FF001094FF07E
:10395000B04B4FF00F0AE9E009FA03F73A4076D08E
:103960000E7906F00306012E01D0022E18D1D0F8F0
:1039700008C04FEA430ECE6804FA0EF82CEA080C91
:1039800006FA0EF646EA0C068660D0F804C00E79F8
:103990002CEA070CC6F300169E4046EA0C06466069
:1039A0000E79F643B6070BD0C6684FEA43088F6816
:1039B00004FA08FC26EA0C0607FA08F73743C76042
:1039C0000E7906F00306022E12D1DE080F694FEAC7
:1039D000437C00EB8606B646366A4FEADC6C0AFA90
:1039E0000CF807FA0CF726EA08063743CEF82070E1
:1039F0000F7906684FEA430807F0030704FA08FC4A
:103A000007FA08F726EA0C06374307604E6816F4F3
:103A1000403F1CD04A4E376847F00207376036688F
:103A20009F0706F00206009623F0030606F1B04653
:103A3000B6463F0FD6F80864DFF808810AFA07FC9B
:103A4000404526EA0C0603D14FF0000C41E06CE043
:103A5000DFF8F4C0604502D14FF0010C39E0DFF827
:103A6000ECC0604502D14FF0020C32E0DFF8E0C05C
:103A7000604502D14FF0030C2BE0DFF8D8C0604561
:103A800002D14FF0040C24E0DFF8CCC0604502D135
:103A90004FF0050C1DE0DFF8C4C0604502D14FF0C7
:103AA000060C16E0DFF8B8C0604502D14FF0070CF5
:103AB0000FE0DFF8B0C0604502D14FF0080C08E01D
:103AC000DFF8A4C0604502D14FF0090C01E04FF0CF
:103AD0000A0C0CFA07FC4CEA060CCEF808C44F6836
:103AE000DBF80060FF0226EA020600D516435F46B7
:103AF000CBF80060D1F804C0DBF804605FEA8C2CDE
:103B000026EA020600D516437E606E684F6826EAF4
:103B10000206BF0300D516436E602E684F6826EA82
:103B20000206FF0300D516432E605B1C0A6832FABA
:103B300003F67FF411AFBDE8F88F00008000005855
:103B4000F4440258000002580004025800080258C9
:103B5000000C0258001002580014025800180258B5
:103B6000001C02580020025800240258426921EA31
:103B700002030A4043EA0241816170470AB1816150
:103B800070470904FBE7000001480068000C70471B
:103B90000010005C0148806870470000BC86062465
:103BA000024881680278114481607047BC8606240F
:103BB000032010B500F0E2F801F0C4FA0F4A1049F2
:103BC00014681368C4F3032203F00F038A5CC95C12
:103BD00002F01F0201F01F01D0400A4A20FA01F151
:103BE000116009490860002000F010F808B10120B8
:103BF00010BD00F079F8002010BD000018440258F4
:103C000000960008CC860624C886062470B50D4DA3
:103C100004462878A0B14FF47A71B1FBF0F00A495C
:103C20000968B1FBF0F001F0FDFD48B9102C07D296
:103C300000222146501E00F081F800206C6070BD0B
:103C4000012070BDBC860624C8860624F0B5154C3C
:103C50004378211D0A1D23600378F3B143680B608C
:103C6000057BC67A817A437B2D07847B45EA06650E
:103C7000C77B90F809C0067A90F800E045EAC14099
:103C800040EA834040EA444040EA074040EA0C20D2
:103C900040EA460040EA0E0001E0002008601060A3
:103CA000F0BD000098ED00E0BFF35F8F04480021F5
:103CB0000368034A23F48033036070321160704755
:103CC00024ED00E0074A40F0010006497032106020
:103CD000086840F480300860BFF34F8FBFF36F8FE8
:103CE0007047000024ED00E00C4808B5016841F081
:103CF00002010160016801F002010091016841F4D4
:103D000000410160006800F40040009001F078FD7F
:103D1000BDE80840022001F07BBD0000F4440258D9
:103D2000002809DB410900F01F028900012001F190
:103D3000E0219040C1F80001704700000E4BF0B444
:103D40001B680D46C3F30223C3F10706042E00D9F6
:103D50000426191D072901D2002300E0DB1E0124DF
:103D600004FA06F19C40491E2940641E9940144003
:103D70002143F0BC03F00EBB0CED00E0064900F05F
:103D8000070210B54FF6FF040868044B204040EAD4
:103D900002201843086010BD0CED00E00000FA0599
:103DA000134970B50A68D243520705D5096801F076
:103DB0000701814213D118E00A6822F0070202438A
:103DC0000A60FFF7E7FE0A4D4FF47A760446083D95
:103DD00007E000BFFFF7DEFE001BB04201D9012063
:103DE00070BD2868C0438004F4D4002070BD00007A
:103DF0000C48025810B501F05FF905490968054AF9
:103E0000C1F30211515C01F01F01C84010BD000058
:103E100020440258009600084A4930B5494C0B1D11
:103E20000A680C3409681D68246802F0030305F071
:103E30000102C1F30511C4F3CC04002914FB02F202
:103E400000EE102AF8EE400A76D0414A9FED3E1A65
:103E5000DFED3E1AB7EE000A23B1012B5AD0022B38
:103E600018D15CE0374C283C23689B0612D5394BAF
:103E7000246801EE901A1168C4F3C104F8EE612AB7
:103E8000E34001EE903AC1F30801F8EE611A81EEC9
:103E9000A22A07E002EE101A1168F8EE422A81EE1B
:103EA000A22A45E001EE901A1168F8EE611A40EE80
:103EB000811A71EE800A62EE200AC1F3462101EEFA
:103EC000101AB8EE411A31EE001AC0EE811ABCEE9B
:103ED000E11A80ED001A1168C1F3064101EE101AD3
:103EE000B8EE411A31EE001AC0EE811ABCEEE11AAA
:103EF00080ED011A1168C1F3066101EE101AB8EEE7
:103F0000411A31EE000A80EE801ABCEEC10A80ED43
:103F1000020A30BD01EE901ADFED0F2A03E001EE38
:103F2000901ADFED0E2A1168F8EE611A82EEA12ACE
:103F3000C1F30801B6E7FFE700210160416081603D
:103F400030BD000028440258000000390024744CA1
:103F5000304402580090D0030024744A20BCBE4B69
:103F6000494930B5484C0B1D0A68143409681D686E
:103F7000246802F00303C5F30012C1F30531C4F352
:103F8000CC04002914FB02F200EE102AF8EE400ADD
:103F900075D03F4A9FED3D1AB7EE000A6BB1DFEDD9
:103FA0003D1A012B01D0022B64D002EE101A1168C9
:103FB000F8EE422A81EEA22A21E0334C283C236805
:103FC0009B0612D5344B246801EE901A1168C4F395
:103FD000C104F8EE612AE34001EE903AC1F3080112
:103FE000F8EE611A81EEA22A0BE001EE901ADFEDE5
:103FF0002B2A00BFF8EE611A116882EEA12AC1F3E4
:10400000080101EE901A1168F8EE611A40EE811A6B
:1040100071EE800A62EE200AC1F3462101EE101A09
:10402000B8EE411A31EE001AC0EE811ABCEEE11A68
:1040300080ED001A1168C1F3064101EE101AB8EEC6
:10404000411A31EE001AC0EE811ABCEEE11A80ED81
:10405000011A1168C1F3066101EE101AB8EE411A97
:1040600031EE000A80EE801ABCEEC10A80ED020A31
:1040700030BD04E001EE901ADFED092ABAE7002115
:10408000016041608160F3E7284402580000003974
:10409000384402580024744A0090D0030024744C21
:1040A00020BCBE4B494930B5484C0B1D0A681C3436
:1040B00009681D68246802F00303C5F30022C1F3F8
:1040C0000551C4F3CC04002914FB02F200EE102ABF
:1040D000F8EE400A75D03F4A9FED3D1AB7EE000A50
:1040E0006BB1DFED3D1A012B01D0022B64D002EE43
:1040F000101A1168F8EE422A81EEA22A21E0334C10
:10410000283C23689B0612D5344B246801EE901A94
:104110001168C4F3C104F8EE612AE34001EE903A5D
:10412000C1F30801F8EE611A81EEA22A0BE001EE5C
:10413000901ADFED2B2A00BFF8EE611A116882EEAB
:10414000A12AC1F3080101EE901A1168F8EE611A74
:1041500040EE811A71EE800A62EE200AC1F3462118
:1041600001EE101AB8EE411A31EE001AC0EE811AB3
:10417000BCEEE11A80ED001A1168C1F3064101EEB0
:10418000101AB8EE411A31EE001AC0EE811ABCEED8
:10419000E11A80ED011A1168C1F3066101EE101AEF
:1041A000B8EE411A31EE000A80EE801ABCEEC10A68
:1041B00080ED020A30BD04E001EE901ADFED092A1D
:1041C000BAE70021016041608160F3E728440258AA
:1041D00000000039404402580024744A0090D00383
:1041E0000024744C20BCBE4B2DE9F04FAC4A054670
:1041F000DFF8A8A280F48070DFF8AC9289B01311C8
:10420000AA4C0843A748AAF104064FF0805C4FF07F
:1042100000582CD085F400770F4357D0DFF87CB2DC
:1042200085F480670F430BF1080B61D085F40067BC
:104230000F4374D085F480570F436ED085F4005738
:104240000F434FF480394FF4003E67D085F40027C8
:104250000F4371D085F480370F436ED085F48046CC
:104260000E436BD085F400420A4368D02AE0DAF8A6
:10427000001001F00701052924D2DFE801F075BC28
:104280007D25B10006A8FFF7C7FD079809B0BDE876
:10429000F08F6846FFF764FE0098F7E703A8FFF782
:1042A00001FF0398F2E72068C0F3C10022FA00F092
:1042B000ECE72268D20571D561456FD11846E5E774
:1042C0004145E3D00020E1E74846DFE7DAF8001097
:1042D00001F4E07180294FD004DC002944D040294A
:1042E000F0D188E0C029EFD0B1F5807FEAD177E046
:1042F000DBF8001001F46001B1F5800F3CD004DC64
:1043000091B3B1F5001FDDD175E0B1F5C00FDBD081
:10431000B1F5000FD6D163E001E018E030E0DBF842
:10432000001001F0E061B1F1007F25D008DCD9B1C7
:10433000B1F1807FC6D15EE049E06CE079E09CE0BD
:10434000B1F1407FC0D0B1F1806FBBD148E0DAF865
:10435000001001F4E041B1F5005F0DD005DC19B1AA
:10436000B1F5805FAED146E094E0B1F5405FABD0EF
:10437000B1F5804FA6D133E020688000A2D58DE74B
:10438000DAF8001001F4E021B1F5403F6CD006DC12
:1043900061B149457AD0714594D157E037E0B1F524
:1043A000802F65D0B1F5A02F8CD10CE000F0A6FED7
:1043B0006CE76846FFF7D4FD019867E703A8FFF7AD
:1043C00071FE049862E721688903F1D47AE7DBF88B
:1043D000001011F440310ED0494510D07145F5D18F
:1043E0003168256801F040516D077FF562AF002903
:1043F0007FF45FAF57E720680001E7D549E7206801
:104400008000E3D503A8FFF74DFE05983EE722683C
:104410009203DBD554E7306810F480303AD0484539
:10442000D4D120680001D1D56846FFF799FD0298E4
:104430002CE7DBF8001001F0E041B1F1405F13D050
:1044400008DC71B1614521D04145BFD120688000B1
:10445000B4D437E7B1F1804F0AD0B1F1A04FB2D058
:1044600030E7FFF7C7FC11E720684007AED51AE731
:104470002068C005AAD521E708E0DAF8001011F09D
:104480004051A0D0614505D041459FD12068000131
:104490008FD417E72068800198D5F3E6504402587E
:1044A0000090D00340787D010080BB00004402589A
:1044B0002DE9FE4F0546DFF8E48350F8081B002481
:1044C000F64FC943019005F12800264608F124085B
:1044D000009008011DD4A86E50B1B0F5801F0CD01B
:1044E000B0F5001F0ED0B0F5401F1ED001240FE024
:1044F000386840F40030386017E00198022102F07B
:1045000029F903E00098022102F0B4F904000CD06C
:1045100026462888C043C00523D4A86D05281ED28E
:10452000DFE800F00C11161B1B00AA6ED8F8001073
:1045300021F440111143C8F80010EAE7386840F44C
:104540000030386009E00198002102F003F903E02F
:104550000098002102F08EF9044674B100E00124B5
:1045600026462888C043800528D4E86D80281ED0C0
:104570000CDC90B140280ED114E0AA6DD8F80010E0
:1045800021F007011143C8F80010EAE7C02813D052
:10459000B0F5807F10D001240FE0386840F400307F
:1045A000386009E00198002102F0D4F803E0009897
:1045B000002102F05FF904469CB126462888DFF806
:1045C000DC92C04309F12C0940052CD4D5F8A80091
:1045D000B0F5800F20D00DDCA0B1B0F5001F0FD1D9
:1045E00015E0EA6DD8F8001021F4E0711143C8F825
:1045F0000010E3E7B0F5C00F13D0B0F5000F10D0F6
:1046000001240FE0386840F40030386009E0019878
:10461000002102F09FF803E00098002102F02AF93F
:1046200004467CB126462888C04300052DD4D5F821
:10463000AC00B0F1007F21D00EDCA8B1B0F1807FDA
:1046400010D116E0D5F8A820D9F8001021F46001A7
:104650001143C9F80010E6E7B0F1407F13D0B0F184
:10466000806F10D001240FE0386840F400303860CB
:1046700009E00198002102F06DF803E000980021A4
:1046800002F0F8F8044674B126462868C043800159
:104690001FD4E86CD8B110280FD0202812D03028B1
:1046A00015D0012414E0D5F8AC20D9F8001021F081
:1046B000E0611143C9F80010E7E7386840F40030C2
:1046C000386004E00198022102F044F8044674B115
:1046D00026462888C043C0042BD4286EB0F5005F5E
:1046E00020D00DDCA0B1B0F5805F0FD115E06B4894
:1046F000EA6C2030016821F0300111430160E8E7E5
:10470000B0F5405F13D0B0F5804F10D001240FE01A
:10471000386840F40030386009E00198002102F068
:1047200019F803E00098002102F0A4F804468CB1C7
:1047300026462888C043800429D4686EB0F5403FDF
:1047400023D010DC08B3B0F5803F14D0B0F5003FA3
:104750000FD115E02A6ED8F8001021F4E041114382
:10476000C8F80010E5E7B0F5802F0ED0B0F5A02F07
:104770000BD001240AE00198012101F0EBFF03E0D6
:104780000098012102F076F8044694B12646288864
:10479000C04340042AD4D5F8B000B0F1405F23D024
:1047A00010DC08B3B0F1805F14D0B0F1005F0FD11E
:1047B00015E06A6ED8F8001021F4E0211143C8F822
:1047C0000010E4E7B0F1804F0ED0B0F1A04F0BD055
:1047D00001240AE00198012101F0BCFF03E00098E8
:1047E000012102F047F8044674B126462888C043E8
:1047F00000041FD4286FD8B1B0F1805F0ED0B0F1A3
:10480000005F10D0012414E0D5F8B020D9F80010D2
:1048100021F0E0411143C9F80010E7E7386840F49F
:104820000030386004E00198012101F093FF044654
:1048300074B126462868C043C0011ED4A86CD0B10C
:1048400001280ED0022811D0032814D0012413E02F
:104850002A6FD8F8001021F040511143C8F8001019
:10486000E8E7386840F40030386004E0019802213D
:1048700001F070FF0446ACB126462868DFF81CB092
:10488000C043ABF11C0B400252D40548016841F40F
:1048900080710160FFF77EF9824611E02C440258D6
:1048A00000480258FA48AA6C016821F0030111433C
:1048B0000160E2E7FFF76EF9A0EB0A00642835D843
:1048C000F4480068C005F5D58CBBDFF8C4A3B5F883
:1048D000B4100AF1240ADAF8000001F4407100F47F
:1048E0004070884211D0DAF80010DAF8002021F484
:1048F000407142F48032CAF80020DAF8002022F435
:104900008032CAF80020CAF80010D5F8B400B0F51B
:10491000807F1AD1FFF73EF9029012E0FFF73AF9D3
:104920000299411A41F2883081420AD9032426466D
:104930002878DFF85CA3C0430AF1080AC00721D039
:104940003CE0DAF800008007E8D5D5F8B410C1F3F0
:104950000120032858460DD0016821F47C510160E4
:10496000B5F8B420DAF80010C2F30B021143CAF80C
:104970000010DDE7C84A036802EA111223F47C51F3
:104980001143ECE7E86F182816D005DCA0B1082821
:1049900008D0102804D10AE020280DD028280BD0F8
:1049A00001240AE00198012101F0D4FE03E00098FF
:1049B000012101F05FFF044664B126462878C04318
:1049C00080071ED4A86F062819D2DFE800F0160C65
:1049D00011161616EA6FDAF8001021F038011143AB
:1049E000CAF80010EAE70198012101F0B3FE03E0E4
:1049F0000098012101F03EFF04467CB100E0012453
:104A000026462878C04340071FD4D5F894000628CE
:104A100019D2DFE800F0160C11161616AA6FDAF894
:104A2000001021F007011143CAF80010E9E70198CE
:104A3000012101F08FFE03E00098012101F01AFF2F
:104A40000446A4B100E0012426462878C04380062D
:104A50002BD4D5F89000B0F1405F24D011DC10B316
:104A6000B0F1805F15D0B0F1005F10D116E0D5F83D
:104A70009420D9F8001021F007011143C9F8001063
:104A8000E3E7B0F1804F0ED0B0F1A04F0BD001247E
:104A90000AE00198002101F05DFE03E00098022188
:104AA00001F0E8FE044694B126462878C04340064B
:104AB0002BD4D5F89C00B0F5406F24D011DC10B396
:104AC000B0F5806F15D0B0F5006F10D116E0D5F8B5
:104AD0009020DAF8001021F0E0411143CAF80010EC
:104AE000E3E7B0F5805F0ED0B0F5A05F0BD00124F6
:104AF0000AE00198002101F02DFE03E00098022158
:104B000001F0B8FE044694B126462878C04300065A
:104B10002BD4D5F8A000B0F5C04F24D011DC10B3D1
:104B2000B0F5005F15D0B0F5804F10D116E0D5F884
:104B30009C20D9F8001021F4E0511143C9F800106D
:104B4000E3E7B0F5004F0ED0B0F5204F0BD00124B5
:104B50000AE00198002101F0FDFD03E00098022128
:104B600001F088FE044654B126462878C043000769
:104B70001ED4D5F88400B0F5805F0AD00FE0D5F8D8
:104B8000A020D9F8001021F460411143C9F80010A9
:104B9000EBE70098022101F06DFE00B10126D5F887
:104BA0008420DAF8001021F440511143CAF80010B3
:104BB0002878C043C00613D4D5F89800B0F5807F9C
:104BC00005D10098022101F055FE00B10126D5F86B
:104BD0009820D9F8001021F440711143C9F8001051
:104BE0002868C043000316D4D5F8A40038B1B0F546
:104BF000803F09D0B0F5003F0BD001240AE00198B6
:104C0000002101F0A7FD03E00098022101F032FE2F
:104C100004468CB126462868C043400322D4D5F808
:104C20008800B0F5801F11D0B0F5001F13D0B0F58B
:104C3000401F15D0012414E0D5F8A420D9F80010A5
:104C400021F440311143C9F80010E4E7386840F41A
:104C50000030386004E00098012101F00BFE0446AA
:104C60005CB126462868C043C00323D4286DA8B190
:104C7000B0F5803F17D001241BE0D5F88820DAF882
:104C8000001021F440111143CAF80010EAE70000B7
:104C90004C44025800480258CFFFFF00386840F4E7
:104CA0000030386004E00198022101F053FD044611
:104CB000E4B126462868C043800005D4009802214C
:104CC00001F0D8FD00B101262868C04380031BD441
:104CD000D5F88000B0B1B0F5807F0FD0B0F5007F7F
:104CE00010D0B0F5407F0DD001240CE05A482A6D59
:104CF000016821F4803111430160DBE7386840F43A
:104D000000303860ECB326462868C043C00207D4A0
:104D10006A6FD8F8001021F000411143C8F8001064
:104D20002868C043C00008D4D5F8B820DBF80010CC
:104D300021F480411143CBF800102868C043800261
:104D400007D4EA6ED8F8001021F080711143C8F83A
:104D500000102868C04340000CD4DBF8001021F498
:104D60000041CBF80010DBF80010D5F8BC2011434F
:104D7000CBF800102868C04308D437486A6D016832
:104D800000E018E021F04051114301602868C04361
:104D9000000208D4D5F88C20DAF8001021F4400184
:104DA0001143CAF8001028790024C04300F0010024
:104DB00020430AD00FE0D5F88020DAF8001021F463
:104DC00040711143CAF800109EE70198002101F0DC
:104DD000C1FC00B106462879C04300F00200204320
:104DE00005D10198012101F0B5FC00B106462879F2
:104DF000C04300F00400204305D10198022101F0D6
:104E0000A9FC00B106462879C04300F00800204301
:104E100005D10098002101F02DFD00B1064628794A
:104E2000C04300F01000204305D10098012101F09B
:104E300021FD00B106462879C04300F0200004435C
:104E400004D10098022101F015FD00B916B101202E
:104E5000BDE8FE8F0020FBE74C4402582DE9F05FCF
:104E600004000F467ED0DFF83882D8F8000000F04A
:104E70000F00B8420CD2D8F8001021F00F013943CE
:104E8000C8F80010D8F8000000F00F00B84269D14F
:104E90002078844D40070AD52069296801F0700107
:104EA000884204D9296821F07001014329602078E3
:104EB0007C4E361D00070AD56069316801F070012B
:104EC000884204D9316821F07001014331602078B3
:104ED000C0060AD5A069316801F4E061884204D9AE
:104EE000316821F4E061014331602078DFF8B4B12A
:104EF00080060BF1080B0CD5E1695846DBF8002061
:104F000002F07002914204D9026822F070020A4352
:104F10000260207880070AD5E068296801F00F0157
:104F2000884204D9296821F00F01014329602078C3
:104F3000C0073ED05B49A2682868183920F4706029
:104F4000104328606068022818D0032819D0096827
:104F5000012819D0490700294ADADFF848A1AAF147
:104F6000080A00E044E0DAF8002022F007020243D9
:104F7000CAF80020FEF70EFE814612E00968890398
:104F8000E9E709688901E6E7C905E4E7FEF702FEFB
:104F9000A0EB090141F28830814202D90320BDE82B
:104FA000F09F6168DAF8000000F03800B0EBC10F44
:104FB000ECD1207880070AD5E068296801F00F015C
:104FC000884204D2296821F00F0101432960D8F8F2
:104FD0000010404601F00F01B9420BD9016821F0E1
:104FE0000F0139430160006800F00F00B84201D0A2
:104FF0000120D4E7207840070AD52069296801F00C
:105000007001884204D2296821F0700101432960AF
:10501000207800070AD56069316801F07001884284
:1050200004D2316821F07001014331602078C0065C
:105030000AD5A069316801F4E061884204D2316880
:1050400021F4E06101433160207880060CD5E169EC
:105050005846DBF8002002F07002914204D2026848
:1050600022F070020A43026000F06CF80E492A68D0
:105070002B68C2F3032203F00F038A5CC95C02F0C1
:105080001F0201F01F01D040084A20FA01F111600F
:105090000749086007480068BDE8F05FFEF7B6BD45
:1050A000002000521844025800960008CC860624BE
:1050B000C8860624C086062430B500F043F80B4AA3
:1050C0000B490C4B15681468C5F3032204F00F0458
:1050D0008A5C095D02F01F0201F01F01D040064A00
:1050E00020FA01F119601060084630BD18440258DA
:1050F00000960008CC860624C886062400B5FFF773
:10510000DBFF05490968054AC1F30211515C01F052
:105110001F01C84000BD00001C4402580096000852
:1051200000B5FFF7C9FF05490968054AC1F3022127
:10513000515C01F01F01C84000BD00001C44025832
:1051400000960008454970B545480968434B103B37
:1051500011F0380208D00111082A03D0102A0BD010
:10516000182A0BD0084670BD19688906FBD5196846
:10517000C1F3C101C84070BD3A4870BD3749374DD1
:1051800018310C1D24350A68096826682D6802F05C
:10519000030406F00102C1F30511C5F3CC0515FBAC
:1051A00002F200EE102AB8EE400AE9B32F4ADFED12
:1051B0002E0AB7EE001A6CB1DFED2D1A012C01D0CA
:1051C000022C43D002EE101A1068F8EE422A81EE4B
:1051D000A22A1EE01C68A40611D51B6801EE901AD5
:1051E0001168C3F3C103F8EE612AD84001EE900ABA
:1051F000C1F30800F8EE611A81EEA22A0BE001EE7D
:10520000901ADFED1C2A00BFF8EE611A106882EEDA
:10521000A12AC0F3080001EE900AF8EE611A40EEF0
:10522000201A31EE810A00E015E022EE000A106833
:10523000C0F34620401C00EE900AF8EE600A80EEB3
:10524000201ABCEEC10A10EE100A70BD01EE901AD1
:10525000DFED092AD8E7002070BD00001044025895
:105260000090D00340787D0100000039304402589E
:105270000024744A0024744C20BCBE4B2DE9F05F1E
:1052800004007DD0FF4F2078FE4D1837DFF8F493EF
:10529000103DC00748D0D9F80000396800F0380048
:1052A000102815D0182803D101F0030002280FD0D0
:1052B0006068B0F5803F12D010B1B0F5A02F18D0C3
:1052C000286820F480302860286820F4802009E0D5
:1052D0002868800328D560680028D2D024E0286898
:1052E00040F480302860606888B1FEF753FC0646C1
:1052F00009E0286840F480202860F0E7FEF74AFCC7
:10530000801B64286FD828688003F7D50CE0FEF76F
:1053100041FC064605E000BFFEF73CFC801B64280C
:10532000F0D828688003F7D4207841F20308D54EDE
:105330000C3E800769D5D9F80000396810F03800B4
:105340000ED0182801D188070AD0E06890B32968E8
:1053500021F0190101432960FEF71CFC824631E06F
:105360002868400702D5E06800288AD0E1682868EC
:1053700020F0190008432860FEF70CFC824607E085
:10538000DFE000BFFEF706FCA0EB0A000228B9D858
:1053900028684007F6D500BFFEF7F6FB40451BD84E
:1053A0002069402812D0316821F47C3141EA003074
:1053B00030602AE018E000BFFEF7ECFBA0EB0A002B
:1053C00002289FD828684007F6D5E5E7306820F422
:1053D0007C3040F40030EBE7207C316821F0FE4166
:1053E00041EA0060E4E70DE1286820F00100286050
:1053F000FEF7D0FB824605E0FEF7CCFBA0EB0A00EF
:1054000002288DD828684007F6D42078C0065DD5DC
:10541000D9F80000DFF86CB2396800F03800ABF161
:10542000040B082810D0182803D101F0030001282C
:105430000AD0E0690028286838D040F08000286051
:10544000FEF7A8FB824623E02868C00523D5E06963
:10545000802876D11FE0206A202821D0316821F0F1
:10546000F84141EA8060306030E000BF94F82010DD
:10547000DBF8002022F07C5242EA0161CBF80010F8
:1054800024E000BFFEF786FBA0EB0A00022898D8B4
:105490002868C005F6D5FEF777FB4045E6D8DAE781
:1054A000306820F0F84040F08040DCE720F08000D9
:1054B0002860FEF76FFB064605E000BFFEF76AFBBB
:1054C000801B02289DD82868C005F7D420780007E3
:1054D00029D56C486169643000298046016811D083
:1054E00041F001010160FEF755FB064605E000BFF3
:1054F000FEF750FB801B0228C9D8D8F800008007AF
:10550000F6D510E021F001010160FEF743FB0646ED
:1055100005E000BFFEF73EFB801B022872D8D8F8DA
:1055200000008007F6D42078800623D5A0690028E3
:10553000286810D040F480502860FEF72BFB064608
:1055400005E036E1FEF726FB801B02285AD82868C2
:105550008004F7D50EE020F480502860FEF71AFB97
:10556000064604E0FEF716FB801B02284AD828688E
:105570008004F7D4207840074FD5DFF80C81D8F8A5
:10558000001041F48071C8F80010FEF703FB0646D6
:1055900005E000BFFEF7FEFA801B642832D8D8F879
:1055A0000000C005F6D5374EA068603601280AD045
:1055B00008B1052813D0306820F001003060306851
:1055C00020F0040002E0306840F001003060A06884
:1055D00041F2883A90B1FEF7DDFA80460AE0306881
:1055E00040F004003060EEE7FEF7D4FAA0EB0801CB
:1055F000514507D830688007F6D50EE0FEF7CAFAA5
:10560000804607E084E000BFFEF7C4FAA0EB080183
:1056100051457DD830688007F6D4606AB0B3DFF8B2
:105620006480D9F8001008F120084FF6F87B08F1E3
:105630000409C1F3C2010329A8F1040A69D00228B0
:10564000286820F08070286003D0FEF7A3FA044693
:1056500084E0FEF79FFA064605E000BFFEF79AFADF
:10566000801B022877D828688001F7D4E26A40F2CC
:10567000F331386854F8283F884340EA0210184351
:10568000386004E01044025800480258B5E0217B1D
:10569000434622894FF4FE0C208A4FF0FE47490210
:1056A000267D521E401EA1F50071C2F308088AB281
:1056B000761E0CEA004042EA08020243504607EA1E
:1056C00006610A431A60DAF8002022F00102CAF8E3
:1056D0000020D9F80020266A22EA0B0242EAC6021C
:1056E000C9F80020DAF80010A26921F00C0111437A
:1056F000CAF800100168E26921F00201114301605B
:10570000016841F480310160016841F4003101E039
:1057100021E027E00160016841F480210160016817
:1057200041F001010160286840F080702860FEF7B8
:1057300031FA044605E000BFFEF72CFA001B0228F0
:1057400009D828688001F7D557E000BFFEF722FA94
:10575000001B022802D90320BDE8F09F28688001C1
:10576000F4D44AE039680128D8F8000021D0A26AB0
:1057700001F0030393421CD1E26AC1F305118A428E
:1057800017D1216BC0F30802491E8A4211D1616B07
:10579000C0F34622491E91420BD1A16BC0F30642D1
:1057A000491E914205D1E16BC0F30660491E81425A
:1057B00001D00120D0E7A16C4E46D9F80000C0F31B
:1057C000CC00814219D0DAF80000554620F00100E3
:1057D000CAF80000FEF7DEF94FEA0007FEF7DAF933
:1057E000B842FBD0A26C306820EA0B0040EAC2004D
:1057F0003060286840F0010028600020ACE700001D
:105800000248016821F0010101607047003C005826
:1058100003490A6822F0020202430A60704700004E
:10582000003C0058401EB0F1807F10B501D301202C
:1058300010BD4FF0E02460610F21601701F0AAFD58
:105840000020A0610721216110BD0000F0B590F893
:105850003C20012A3BD01F4E012480F83C4002220C
:1058600080F83D2002681C4D5368B242D2F808C04F
:1058700001D0AA4203D14F6823F470033B430F6861
:1058800023F070031F4357600268B24213D0B2F195
:10589000804F10D0114B9A420DD0114B9A420AD032
:1058A000104B9A4207D0AA4205D00F4B9A4202D021
:1058B0000E4B9A4204D189682CF080031943916001
:1058C000002180F83D4080F83C100846F0BD0220E1
:1058D000F0BD000000000140000401400004004051
:1058E00000080040000C004000180040004001404B
:1058F00010B5040003D094F83D0010B107E001207A
:1059000010BD002084F83C00204600F023F802205F
:1059100084F83D002068211D01F052F9012084F82F
:10592000480084F83E0084F83F0084F8400084F882
:10593000410084F8420084F8430084F8440084F86D
:10594000450084F8460084F8470084F83D000020B4
:1059500010BD000008B50D4B02680D499A4207D1F1
:105960000A6842F010020A600A6802F0100200920F
:105970000068084A904207D1086840F0200008609B
:10598000086800F02000009008BD000000100040F2
:10599000E84402580014004090F83D10012901D05D
:1059A00001207047144B0222016880F83D20994283
:1059B00014D0B1F1804F11D0104881420ED0104860
:1059C00081420BD00F48814208D00F48814205D058
:1059D0000E48814202D00E48814207D188680D4AA4
:1059E0001040062806D0B0F5803F03D0086840F08C
:1059F00001000860002070470000014000040040E2
:105A000000080040000C0040000401400018004065
:105A10000040014007000100016841F211130A6AC9
:105A20001A4207D10A6A9B101A4203D10A6822F06F
:105A300001020A60012180F83D1000207047704784
:105A400070477047704770470146D0F88800D1F81A
:105A50008C100843704700002DE9F04107680025CD
:105A6000044640F60F030226F8693968BA681842FE
:105A70000AD183067ED501F0200302F0805C53EA50
:105A80000C0377D0616F74E1CF4BDFF840C3134054
:105A900001EA0C0C53EA0C0C6CD05FEAC07C0CD011
:105AA0005FEAC15C09D54FF0010CC7F820C0D4F8FB
:105AB000907047F00107C4F89070870709D5D707A1
:105AC00007D027683E62D4F8906046F00406C4F818
:105AD000906046070AD5D60708D0276804263E629C
